{
  "contractName": "DssProxyActionsBase",
  "abi": [
    {
      "constant": false,
      "inputs": [
        {
          "internalType": "address",
          "name": "apt",
          "type": "address"
        },
        {
          "internalType": "address",
          "name": "urn",
          "type": "address"
        },
        {
          "internalType": "uint256",
          "name": "wad",
          "type": "uint256"
        }
      ],
      "name": "daiJoin_join",
      "outputs": [],
      "payable": false,
      "stateMutability": "nonpayable",
      "type": "function"
    },
    {
      "constant": false,
      "inputs": [
        {
          "internalType": "address",
          "name": "gem",
          "type": "address"
        },
        {
          "internalType": "address",
          "name": "dst",
          "type": "address"
        },
        {
          "internalType": "uint256",
          "name": "wad",
          "type": "uint256"
        }
      ],
      "name": "transfer",
      "outputs": [],
      "payable": false,
      "stateMutability": "nonpayable",
      "type": "function"
    },
    {
      "constant": false,
      "inputs": [
        {
          "internalType": "address",
          "name": "apt",
          "type": "address"
        },
        {
          "internalType": "address",
          "name": "urn",
          "type": "address"
        }
      ],
      "name": "ethJoin_join",
      "outputs": [],
      "payable": true,
      "stateMutability": "payable",
      "type": "function"
    },
    {
      "constant": false,
      "inputs": [
        {
          "internalType": "address",
          "name": "apt",
          "type": "address"
        },
        {
          "internalType": "address",
          "name": "urn",
          "type": "address"
        },
        {
          "internalType": "uint256",
          "name": "wad",
          "type": "uint256"
        },
        {
          "internalType": "bool",
          "name": "transferFrom",
          "type": "bool"
        }
      ],
      "name": "gemJoin_join",
      "outputs": [],
      "payable": false,
      "stateMutability": "nonpayable",
      "type": "function"
    },
    {
      "constant": false,
      "inputs": [
        {
          "internalType": "address",
          "name": "obj",
          "type": "address"
        },
        {
          "internalType": "address",
          "name": "usr",
          "type": "address"
        }
      ],
      "name": "hope",
      "outputs": [],
      "payable": false,
      "stateMutability": "nonpayable",
      "type": "function"
    },
    {
      "constant": false,
      "inputs": [
        {
          "internalType": "address",
          "name": "obj",
          "type": "address"
        },
        {
          "internalType": "address",
          "name": "usr",
          "type": "address"
        }
      ],
      "name": "nope",
      "outputs": [],
      "payable": false,
      "stateMutability": "nonpayable",
      "type": "function"
    },
    {
      "constant": false,
      "inputs": [
        {
          "internalType": "address",
          "name": "manager",
          "type": "address"
        },
        {
          "internalType": "bytes32",
          "name": "ilk",
          "type": "bytes32"
        },
        {
          "internalType": "address",
          "name": "usr",
          "type": "address"
        }
      ],
      "name": "open",
      "outputs": [
        {
          "internalType": "uint256",
          "name": "cdp",
          "type": "uint256"
        }
      ],
      "payable": false,
      "stateMutability": "nonpayable",
      "type": "function"
    },
    {
      "constant": false,
      "inputs": [
        {
          "internalType": "address",
          "name": "manager",
          "type": "address"
        },
        {
          "internalType": "uint256",
          "name": "cdp",
          "type": "uint256"
        },
        {
          "internalType": "address",
          "name": "usr",
          "type": "address"
        }
      ],
      "name": "give",
      "outputs": [],
      "payable": false,
      "stateMutability": "nonpayable",
      "type": "function"
    },
    {
      "constant": false,
      "inputs": [
        {
          "internalType": "address",
          "name": "proxyRegistry",
          "type": "address"
        },
        {
          "internalType": "address",
          "name": "manager",
          "type": "address"
        },
        {
          "internalType": "uint256",
          "name": "cdp",
          "type": "uint256"
        },
        {
          "internalType": "address",
          "name": "dst",
          "type": "address"
        }
      ],
      "name": "giveToProxy",
      "outputs": [],
      "payable": false,
      "stateMutability": "nonpayable",
      "type": "function"
    },
    {
      "constant": false,
      "inputs": [
        {
          "internalType": "address",
          "name": "manager",
          "type": "address"
        },
        {
          "internalType": "uint256",
          "name": "cdp",
          "type": "uint256"
        },
        {
          "internalType": "address",
          "name": "usr",
          "type": "address"
        },
        {
          "internalType": "uint256",
          "name": "ok",
          "type": "uint256"
        }
      ],
      "name": "cdpAllow",
      "outputs": [],
      "payable": false,
      "stateMutability": "nonpayable",
      "type": "function"
    },
    {
      "constant": false,
      "inputs": [
        {
          "internalType": "address",
          "name": "manager",
          "type": "address"
        },
        {
          "internalType": "address",
          "name": "usr",
          "type": "address"
        },
        {
          "internalType": "uint256",
          "name": "ok",
          "type": "uint256"
        }
      ],
      "name": "urnAllow",
      "outputs": [],
      "payable": false,
      "stateMutability": "nonpayable",
      "type": "function"
    },
    {
      "constant": false,
      "inputs": [
        {
          "internalType": "address",
          "name": "manager",
          "type": "address"
        },
        {
          "internalType": "uint256",
          "name": "cdp",
          "type": "uint256"
        },
        {
          "internalType": "address",
          "name": "dst",
          "type": "address"
        },
        {
          "internalType": "uint256",
          "name": "wad",
          "type": "uint256"
        }
      ],
      "name": "flux",
      "outputs": [],
      "payable": false,
      "stateMutability": "nonpayable",
      "type": "function"
    },
    {
      "constant": false,
      "inputs": [
        {
          "internalType": "address",
          "name": "manager",
          "type": "address"
        },
        {
          "internalType": "uint256",
          "name": "cdp",
          "type": "uint256"
        },
        {
          "internalType": "address",
          "name": "dst",
          "type": "address"
        },
        {
          "internalType": "uint256",
          "name": "rad",
          "type": "uint256"
        }
      ],
      "name": "move",
      "outputs": [],
      "payable": false,
      "stateMutability": "nonpayable",
      "type": "function"
    },
    {
      "constant": false,
      "inputs": [
        {
          "internalType": "address",
          "name": "manager",
          "type": "address"
        },
        {
          "internalType": "uint256",
          "name": "cdp",
          "type": "uint256"
        },
        {
          "internalType": "int256",
          "name": "dink",
          "type": "int256"
        },
        {
          "internalType": "int256",
          "name": "dart",
          "type": "int256"
        }
      ],
      "name": "frob",
      "outputs": [],
      "payable": false,
      "stateMutability": "nonpayable",
      "type": "function"
    },
    {
      "constant": false,
      "inputs": [
        {
          "internalType": "address",
          "name": "manager",
          "type": "address"
        },
        {
          "internalType": "uint256",
          "name": "cdp",
          "type": "uint256"
        },
        {
          "internalType": "address",
          "name": "dst",
          "type": "address"
        }
      ],
      "name": "quit",
      "outputs": [],
      "payable": false,
      "stateMutability": "nonpayable",
      "type": "function"
    },
    {
      "constant": false,
      "inputs": [
        {
          "internalType": "address",
          "name": "manager",
          "type": "address"
        },
        {
          "internalType": "address",
          "name": "src",
          "type": "address"
        },
        {
          "internalType": "uint256",
          "name": "cdp",
          "type": "uint256"
        }
      ],
      "name": "enter",
      "outputs": [],
      "payable": false,
      "stateMutability": "nonpayable",
      "type": "function"
    },
    {
      "constant": false,
      "inputs": [
        {
          "internalType": "address",
          "name": "manager",
          "type": "address"
        },
        {
          "internalType": "uint256",
          "name": "cdpSrc",
          "type": "uint256"
        },
        {
          "internalType": "uint256",
          "name": "cdpOrg",
          "type": "uint256"
        }
      ],
      "name": "shift",
      "outputs": [],
      "payable": false,
      "stateMutability": "nonpayable",
      "type": "function"
    }
  ],
  "bytecode": "0x608060405234801561001057600080fd5b50611d82806100206000396000f3fe6080604052600436106100fe5760003560e01c80637df2eb2511610095578063b50a586911610064578063b50a5869146106d8578063ba727a9514610749578063beabacc8146107ce578063c56167c614610849578063eb0b9a85146108c4576100fe565b80637df2eb251461050d57806396e8d72c146105945780639f887fde14610603578063a033df1214610674576100fe565b8063493c2049116100d1578063493c2049146103035780635f6ef4471461039e5780636aa3ee11146104195780637bc3bd53146104a8576100fe565b80631558b048146101035780631d10f2311461018857806325cf37d0146102035780634592aca714610288575b600080fd5b34801561010f57600080fd5b506101866004803603608081101561012657600080fd5b81019080803573ffffffffffffffffffffffffffffffffffffffff16906020019092919080359060200190929190803573ffffffffffffffffffffffffffffffffffffffff1690602001909291908035906020019092919050505061093f565b005b34801561019457600080fd5b50610201600480360360608110156101ab57600080fd5b81019080803573ffffffffffffffffffffffffffffffffffffffff16906020019092919080359060200190929190803573ffffffffffffffffffffffffffffffffffffffff1690602001909291905050506109ec565b005b34801561020f57600080fd5b506102866004803603608081101561022657600080fd5b81019080803573ffffffffffffffffffffffffffffffffffffffff16906020019092919080359060200190929190803573ffffffffffffffffffffffffffffffffffffffff16906020019092919080359060200190929190505050610a90565b005b34801561029457600080fd5b50610301600480360360608110156102ab57600080fd5b81019080803573ffffffffffffffffffffffffffffffffffffffff16906020019092919080359060200190929190803573ffffffffffffffffffffffffffffffffffffffff169060200190929190505050610b3d565b005b34801561030f57600080fd5b5061039c6004803603608081101561032657600080fd5b81019080803573ffffffffffffffffffffffffffffffffffffffff169060200190929190803573ffffffffffffffffffffffffffffffffffffffff16906020019092919080359060200190929190803573ffffffffffffffffffffffffffffffffffffffff169060200190929190505050610be1565b005b3480156103aa57600080fd5b50610417600480360360608110156103c157600080fd5b81019080803573ffffffffffffffffffffffffffffffffffffffff169060200190929190803573ffffffffffffffffffffffffffffffffffffffff16906020019092919080359060200190929190505050610ed5565b005b34801561042557600080fd5b506104926004803603606081101561043c57600080fd5b81019080803573ffffffffffffffffffffffffffffffffffffffff16906020019092919080359060200190929190803573ffffffffffffffffffffffffffffffffffffffff169060200190929190505050610f79565b6040518082815260200191505060405180910390f35b3480156104b457600080fd5b5061050b600480360360608110156104cb57600080fd5b81019080803573ffffffffffffffffffffffffffffffffffffffff1690602001909291908035906020019092919080359060200190929190505050611046565b005b34801561051957600080fd5b506105926004803603608081101561053057600080fd5b81019080803573ffffffffffffffffffffffffffffffffffffffff169060200190929190803573ffffffffffffffffffffffffffffffffffffffff169060200190929190803590602001909291908035151590602001909291905050506110be565b005b3480156105a057600080fd5b50610601600480360360808110156105b757600080fd5b81019080803573ffffffffffffffffffffffffffffffffffffffff1690602001909291908035906020019092919080359060200190929190803590602001909291905050506113e0565b005b34801561060f57600080fd5b506106726004803603604081101561062657600080fd5b81019080803573ffffffffffffffffffffffffffffffffffffffff169060200190929190803573ffffffffffffffffffffffffffffffffffffffff169060200190929190505050611461565b005b6106d66004803603604081101561068a57600080fd5b81019080803573ffffffffffffffffffffffffffffffffffffffff169060200190929190803573ffffffffffffffffffffffffffffffffffffffff1690602001909291905050506114fc565b005b3480156106e457600080fd5b50610747600480360360408110156106fb57600080fd5b81019080803573ffffffffffffffffffffffffffffffffffffffff169060200190929190803573ffffffffffffffffffffffffffffffffffffffff1690602001909291905050506117a3565b005b34801561075557600080fd5b506107cc6004803603608081101561076c57600080fd5b81019080803573ffffffffffffffffffffffffffffffffffffffff16906020019092919080359060200190929190803573ffffffffffffffffffffffffffffffffffffffff1690602001909291908035906020019092919050505061183e565b005b3480156107da57600080fd5b50610847600480360360608110156107f157600080fd5b81019080803573ffffffffffffffffffffffffffffffffffffffff169060200190929190803573ffffffffffffffffffffffffffffffffffffffff169060200190929190803590602001909291905050506118eb565b005b34801561085557600080fd5b506108c26004803603606081101561086c57600080fd5b81019080803573ffffffffffffffffffffffffffffffffffffffff169060200190929190803573ffffffffffffffffffffffffffffffffffffffff1690602001909291908035906020019092919050505061198f565b005b3480156108d057600080fd5b5061093d600480360360608110156108e757600080fd5b81019080803573ffffffffffffffffffffffffffffffffffffffff169060200190929190803573ffffffffffffffffffffffffffffffffffffffff16906020019092919080359060200190929190505050611ca9565b005b8373ffffffffffffffffffffffffffffffffffffffff16639bb8f8388484846040518463ffffffff1660e01b8152600401808481526020018373ffffffffffffffffffffffffffffffffffffffff1673ffffffffffffffffffffffffffffffffffffffff1681526020018281526020019350505050600060405180830381600087803b1580156109ce57600080fd5b505af11580156109e2573d6000803e3d6000fd5b5050505050505050565b8273ffffffffffffffffffffffffffffffffffffffff1663fcafcc6883836040518363ffffffff1660e01b8152600401808381526020018273ffffffffffffffffffffffffffffffffffffffff1673ffffffffffffffffffffffffffffffffffffffff16815260200192505050600060405180830381600087803b158015610a7357600080fd5b505af1158015610a87573d6000803e3d6000fd5b50505050505050565b8373ffffffffffffffffffffffffffffffffffffffff1663f9f30db68484846040518463ffffffff1660e01b8152600401808481526020018373ffffffffffffffffffffffffffffffffffffffff1673ffffffffffffffffffffffffffffffffffffffff1681526020018281526020019350505050600060405180830381600087803b158015610b1f57600080fd5b505af1158015610b33573d6000803e3d6000fd5b5050505050505050565b8273ffffffffffffffffffffffffffffffffffffffff16631b0dbf7283836040518363ffffffff1660e01b8152600401808381526020018273ffffffffffffffffffffffffffffffffffffffff1673ffffffffffffffffffffffffffffffffffffffff16815260200192505050600060405180830381600087803b158015610bc457600080fd5b505af1158015610bd8573d6000803e3d6000fd5b50505050505050565b60008473ffffffffffffffffffffffffffffffffffffffff1663c4552791836040518263ffffffff1660e01b8152600401808273ffffffffffffffffffffffffffffffffffffffff1673ffffffffffffffffffffffffffffffffffffffff16815260200191505060206040518083038186803b158015610c6057600080fd5b505afa158015610c74573d6000803e3d6000fd5b505050506040513d6020811015610c8a57600080fd5b81019080805190602001909291905050509050600073ffffffffffffffffffffffffffffffffffffffff168173ffffffffffffffffffffffffffffffffffffffff161480610d8457508173ffffffffffffffffffffffffffffffffffffffff168173ffffffffffffffffffffffffffffffffffffffff16638da5cb5b6040518163ffffffff1660e01b815260040160206040518083038186803b158015610d3057600080fd5b505afa158015610d44573d6000803e3d6000fd5b505050506040513d6020811015610d5a57600080fd5b810190808051906020019092919050505073ffffffffffffffffffffffffffffffffffffffff1614155b15610ec3576000823b905060008114610e05576040517f08c379a00000000000000000000000000000000000000000000000000000000081526004018080602001828103825260118152602001807f4473742d69732d612d636f6e747261637400000000000000000000000000000081525060200191505060405180910390fd5b8573ffffffffffffffffffffffffffffffffffffffff1663f3701da2846040518263ffffffff1660e01b8152600401808273ffffffffffffffffffffffffffffffffffffffff1673ffffffffffffffffffffffffffffffffffffffff168152602001915050602060405180830381600087803b158015610e8457600080fd5b505af1158015610e98573d6000803e3d6000fd5b505050506040513d6020811015610eae57600080fd5b81019080805190602001909291905050509150505b610ece8484836109ec565b5050505050565b8273ffffffffffffffffffffffffffffffffffffffff1663b68f400483836040518363ffffffff1660e01b8152600401808373ffffffffffffffffffffffffffffffffffffffff1673ffffffffffffffffffffffffffffffffffffffff16815260200182815260200192505050600060405180830381600087803b158015610f5c57600080fd5b505af1158015610f70573d6000803e3d6000fd5b50505050505050565b60008373ffffffffffffffffffffffffffffffffffffffff16636090dec584846040518363ffffffff1660e01b8152600401808381526020018273ffffffffffffffffffffffffffffffffffffffff1673ffffffffffffffffffffffffffffffffffffffff16815260200192505050602060405180830381600087803b15801561100257600080fd5b505af1158015611016573d6000803e3d6000fd5b505050506040513d602081101561102c57600080fd5b810190808051906020019092919050505090509392505050565b8273ffffffffffffffffffffffffffffffffffffffff1663e50322a283836040518363ffffffff1660e01b81526004018083815260200182815260200192505050600060405180830381600087803b1580156110a157600080fd5b505af11580156110b5573d6000803e3d6000fd5b50505050505050565b801561133b578373ffffffffffffffffffffffffffffffffffffffff16637bd2bea76040518163ffffffff1660e01b8152600401602060405180830381600087803b15801561110c57600080fd5b505af1158015611120573d6000803e3d6000fd5b505050506040513d602081101561113657600080fd5b810190808051906020019092919050505073ffffffffffffffffffffffffffffffffffffffff166323b872dd3330856040518463ffffffff1660e01b8152600401808473ffffffffffffffffffffffffffffffffffffffff1673ffffffffffffffffffffffffffffffffffffffff1681526020018373ffffffffffffffffffffffffffffffffffffffff1673ffffffffffffffffffffffffffffffffffffffff1681526020018281526020019350505050600060405180830381600087803b15801561120157600080fd5b505af1158015611215573d6000803e3d6000fd5b505050508373ffffffffffffffffffffffffffffffffffffffff16637bd2bea76040518163ffffffff1660e01b8152600401602060405180830381600087803b15801561126157600080fd5b505af1158015611275573d6000803e3d6000fd5b505050506040513d602081101561128b57600080fd5b810190808051906020019092919050505073ffffffffffffffffffffffffffffffffffffffff1663095ea7b385846040518363ffffffff1660e01b8152600401808373ffffffffffffffffffffffffffffffffffffffff1673ffffffffffffffffffffffffffffffffffffffff16815260200182815260200192505050600060405180830381600087803b15801561132257600080fd5b505af1158015611336573d6000803e3d6000fd5b505050505b8373ffffffffffffffffffffffffffffffffffffffff16633b4da69f84846040518363ffffffff1660e01b8152600401808373ffffffffffffffffffffffffffffffffffffffff1673ffffffffffffffffffffffffffffffffffffffff16815260200182815260200192505050600060405180830381600087803b1580156113c257600080fd5b505af11580156113d6573d6000803e3d6000fd5b5050505050505050565b8373ffffffffffffffffffffffffffffffffffffffff166345e6bdcd8484846040518463ffffffff1660e01b8152600401808481526020018381526020018281526020019350505050600060405180830381600087803b15801561144357600080fd5b505af1158015611457573d6000803e3d6000fd5b5050505050505050565b8173ffffffffffffffffffffffffffffffffffffffff1663dc4d20fa826040518263ffffffff1660e01b8152600401808273ffffffffffffffffffffffffffffffffffffffff1673ffffffffffffffffffffffffffffffffffffffff168152602001915050600060405180830381600087803b1580156114e057600080fd5b505af11580156114f4573d6000803e3d6000fd5b505050505050565b8173ffffffffffffffffffffffffffffffffffffffff16637bd2bea76040518163ffffffff1660e01b8152600401602060405180830381600087803b15801561154457600080fd5b505af1158015611558573d6000803e3d6000fd5b505050506040513d602081101561156e57600080fd5b810190808051906020019092919050505073ffffffffffffffffffffffffffffffffffffffff1663d0e30db0346040518263ffffffff1660e01b81526004016000604051808303818588803b1580156115c657600080fd5b505af11580156115da573d6000803e3d6000fd5b50505050508173ffffffffffffffffffffffffffffffffffffffff16637bd2bea76040518163ffffffff1660e01b8152600401602060405180830381600087803b15801561162757600080fd5b505af115801561163b573d6000803e3d6000fd5b505050506040513d602081101561165157600080fd5b810190808051906020019092919050505073ffffffffffffffffffffffffffffffffffffffff1663095ea7b383346040518363ffffffff1660e01b8152600401808373ffffffffffffffffffffffffffffffffffffffff1673ffffffffffffffffffffffffffffffffffffffff16815260200182815260200192505050600060405180830381600087803b1580156116e857600080fd5b505af11580156116fc573d6000803e3d6000fd5b505050508173ffffffffffffffffffffffffffffffffffffffff16633b4da69f82346040518363ffffffff1660e01b8152600401808373ffffffffffffffffffffffffffffffffffffffff1673ffffffffffffffffffffffffffffffffffffffff16815260200182815260200192505050600060405180830381600087803b15801561178757600080fd5b505af115801561179b573d6000803e3d6000fd5b505050505050565b8173ffffffffffffffffffffffffffffffffffffffff1663a3b22fc4826040518263ffffffff1660e01b8152600401808273ffffffffffffffffffffffffffffffffffffffff1673ffffffffffffffffffffffffffffffffffffffff168152602001915050600060405180830381600087803b15801561182257600080fd5b505af1158015611836573d6000803e3d6000fd5b505050505050565b8373ffffffffffffffffffffffffffffffffffffffff16630b63fb628484846040518463ffffffff1660e01b8152600401808481526020018373ffffffffffffffffffffffffffffffffffffffff1673ffffffffffffffffffffffffffffffffffffffff1681526020018281526020019350505050600060405180830381600087803b1580156118cd57600080fd5b505af11580156118e1573d6000803e3d6000fd5b5050505050505050565b8273ffffffffffffffffffffffffffffffffffffffff1663a9059cbb83836040518363ffffffff1660e01b8152600401808373ffffffffffffffffffffffffffffffffffffffff1673ffffffffffffffffffffffffffffffffffffffff16815260200182815260200192505050600060405180830381600087803b15801561197257600080fd5b505af1158015611986573d6000803e3d6000fd5b50505050505050565b8273ffffffffffffffffffffffffffffffffffffffff1663f4b9fa756040518163ffffffff1660e01b8152600401602060405180830381600087803b1580156119d757600080fd5b505af11580156119eb573d6000803e3d6000fd5b505050506040513d6020811015611a0157600080fd5b810190808051906020019092919050505073ffffffffffffffffffffffffffffffffffffffff166323b872dd3330846040518463ffffffff1660e01b8152600401808473ffffffffffffffffffffffffffffffffffffffff1673ffffffffffffffffffffffffffffffffffffffff1681526020018373ffffffffffffffffffffffffffffffffffffffff1673ffffffffffffffffffffffffffffffffffffffff1681526020018281526020019350505050600060405180830381600087803b158015611acc57600080fd5b505af1158015611ae0573d6000803e3d6000fd5b505050508273ffffffffffffffffffffffffffffffffffffffff1663f4b9fa756040518163ffffffff1660e01b8152600401602060405180830381600087803b158015611b2c57600080fd5b505af1158015611b40573d6000803e3d6000fd5b505050506040513d6020811015611b5657600080fd5b810190808051906020019092919050505073ffffffffffffffffffffffffffffffffffffffff1663095ea7b384836040518363ffffffff1660e01b8152600401808373ffffffffffffffffffffffffffffffffffffffff1673ffffffffffffffffffffffffffffffffffffffff16815260200182815260200192505050600060405180830381600087803b158015611bed57600080fd5b505af1158015611c01573d6000803e3d6000fd5b505050508273ffffffffffffffffffffffffffffffffffffffff16633b4da69f83836040518363ffffffff1660e01b8152600401808373ffffffffffffffffffffffffffffffffffffffff1673ffffffffffffffffffffffffffffffffffffffff16815260200182815260200192505050600060405180830381600087803b158015611c8c57600080fd5b505af1158015611ca0573d6000803e3d6000fd5b50505050505050565b8273ffffffffffffffffffffffffffffffffffffffff16637e348b7d83836040518363ffffffff1660e01b8152600401808373ffffffffffffffffffffffffffffffffffffffff1673ffffffffffffffffffffffffffffffffffffffff16815260200182815260200192505050600060405180830381600087803b158015611d3057600080fd5b505af1158015611d44573d6000803e3d6000fd5b5050505050505056fea265627a7a72315820fa87ac7fa0a23fda09314cfe0f7c458e4c66e097782b321cae5961bb97cb45e964736f6c63430005100032",
  "source": "pragma solidity ^0.5.0;\n\nimport \"./IDssProxyActions.sol\";\n\ncontract DssProxyActionsBase {\n    uint256 constant RAY = 10**27;\n\n    // Internal functions\n\n    function mul(uint256 x, uint256 y) internal pure returns (uint256 z) {\n        require(y == 0 || (z = x * y) / y == x, \"mul-overflow\");\n    }\n\n    function sub(uint256 x, uint256 y) internal pure returns (uint256 z) {\n        require((z = x - y) <= x, \"sub-overflow\");\n    }\n\n    function toInt(uint256 x) internal pure returns (int256 y) {\n        y = int256(x);\n        require(y >= 0, \"int-overflow\");\n    }\n\n    function toRad(uint256 wad) internal pure returns (uint256 rad) {\n        rad = mul(wad, 10**27);\n    }\n\n    function convertTo18(address gemJoin, uint256 amt)\n        internal\n        returns (uint256 wad)\n    {\n        // For those collaterals that have less than 18 decimals precision we need to do the conversion before passing to frob function\n        // Adapters will automatically handle the difference of precision\n        wad = mul(amt, 10**(18 - GemJoinLike(gemJoin).dec()));\n    }\n\n    // Public functions\n\n    function daiJoin_join(address apt, address urn, uint256 wad) public {\n        // Gets DAI from the user's wallet\n        DaiJoinLike(apt).dai().transferFrom(msg.sender, address(this), wad);\n        // Approves adapter to take the DAI amount\n        DaiJoinLike(apt).dai().approve(apt, wad);\n        // Joins DAI into the vat\n        DaiJoinLike(apt).join(urn, wad);\n    }\n\n    function _getDrawDart(\n        address vat,\n        address jug,\n        address urn,\n        bytes32 ilk,\n        uint256 wad\n    ) internal returns (int256 dart) {\n        // Updates stability fee rate\n        uint256 rate = JugLike(jug).drip(ilk);\n\n        // Gets DAI balance of the urn in the vat\n        uint256 dai = VatLike(vat).dai(urn);\n\n        // If there was already enough DAI in the vat balance, just exits it without adding more debt\n        if (dai < mul(wad, RAY)) {\n            // Calculates the needed dart so together with the existing dai in the vat is enough to exit wad amount of DAI tokens\n            dart = toInt(sub(mul(wad, RAY), dai) / rate);\n            // This is neeeded due lack of precision. It might need to sum an extra dart wei (for the given DAI wad amount)\n            dart = mul(uint256(dart), rate) < mul(wad, RAY) ? dart + 1 : dart;\n        }\n    }\n\n    function _getWipeDart(address vat, uint256 dai, address urn, bytes32 ilk)\n        internal\n        view\n        returns (int256 dart)\n    {\n        // Gets actual rate from the vat\n        (, uint256 rate, , , ) = VatLike(vat).ilks(ilk);\n        // Gets actual art value of the urn\n        (, uint256 art) = VatLike(vat).urns(ilk, urn);\n\n        // Uses the whole dai balance in the vat to reduce the debt\n        dart = toInt(dai / rate);\n        // Checks the calculated dart is not higher than urn.art (total debt), otherwise uses its value\n        dart = uint256(dart) <= art ? -dart : -toInt(art);\n    }\n\n    function _getWipeAllWad(address vat, address usr, address urn, bytes32 ilk)\n        internal\n        view\n        returns (uint256 wad)\n    {\n        // Gets actual rate from the vat\n        (, uint256 rate, , , ) = VatLike(vat).ilks(ilk);\n        // Gets actual art value of the urn\n        (, uint256 art) = VatLike(vat).urns(ilk, urn);\n        // Gets actual dai amount in the urn\n        uint256 dai = VatLike(vat).dai(usr);\n\n        uint256 rad = sub(mul(art, rate), dai);\n        wad = rad / RAY;\n\n        // If the rad precision has some dust, it will need to request for 1 extra wad wei\n        wad = mul(wad, RAY) < rad ? wad + 1 : wad;\n    }\n\n    // Public functions\n\n    function transfer(address gem, address dst, uint256 wad) public {\n        GemLike(gem).transfer(dst, wad);\n    }\n\n    function ethJoin_join(address apt, address urn) public payable {\n        // Wraps ETH in WETH\n        GemJoinLike(apt).gem().deposit.value(msg.value)();\n        // Approves adapter to take the WETH amount\n        GemJoinLike(apt).gem().approve(address(apt), msg.value);\n        // Joins WETH collateral into the vat\n        GemJoinLike(apt).join(urn, msg.value);\n    }\n\n    function gemJoin_join(\n        address apt,\n        address urn,\n        uint256 wad,\n        bool transferFrom\n    ) public {\n        // Only executes for tokens that have approval/transferFrom implementation\n        if (transferFrom) {\n            // Gets token from the user's wallet\n            GemJoinLike(apt).gem().transferFrom(msg.sender, address(this), wad);\n            // Approves adapter to take the token amount\n            GemJoinLike(apt).gem().approve(apt, wad);\n        }\n        // Joins token collateral into the vat\n        GemJoinLike(apt).join(urn, wad);\n    }\n\n    function hope(address obj, address usr) public {\n        HopeLike(obj).hope(usr);\n    }\n\n    function nope(address obj, address usr) public {\n        HopeLike(obj).nope(usr);\n    }\n\n    function open(address manager, bytes32 ilk, address usr)\n        public\n        returns (uint256 cdp)\n    {\n        cdp = ManagerLike(manager).open(ilk, usr);\n    }\n\n    function give(address manager, uint256 cdp, address usr) public {\n        ManagerLike(manager).give(cdp, usr);\n    }\n\n    function giveToProxy(\n        address proxyRegistry,\n        address manager,\n        uint256 cdp,\n        address dst\n    ) public {\n        // Gets actual proxy address\n        address proxy = ProxyRegistryLike(proxyRegistry).proxies(dst);\n        // Checks if the proxy address already existed and dst address is still the owner\n        if (proxy == address(0) || ProxyLike(proxy).owner() != dst) {\n            uint256 csize;\n            assembly {\n                csize := extcodesize(dst)\n            }\n            // We want to avoid creating a proxy for a contract address that might not be able to handle proxies, then losing the CDP\n            require(csize == 0, \"Dst-is-a-contract\");\n            // Creates the proxy for the dst address\n            proxy = ProxyRegistryLike(proxyRegistry).build(dst);\n        }\n        // Transfers CDP to the dst proxy\n        give(manager, cdp, proxy);\n    }\n\n    function cdpAllow(address manager, uint256 cdp, address usr, uint256 ok)\n        public\n    {\n        ManagerLike(manager).cdpAllow(cdp, usr, ok);\n    }\n\n    function urnAllow(address manager, address usr, uint256 ok) public {\n        ManagerLike(manager).urnAllow(usr, ok);\n    }\n\n    function flux(address manager, uint256 cdp, address dst, uint256 wad)\n        public\n    {\n        ManagerLike(manager).flux(cdp, dst, wad);\n    }\n\n    function move(address manager, uint256 cdp, address dst, uint256 rad)\n        public\n    {\n        ManagerLike(manager).move(cdp, dst, rad);\n    }\n\n    function frob(address manager, uint256 cdp, int256 dink, int256 dart)\n        public\n    {\n        ManagerLike(manager).frob(cdp, dink, dart);\n    }\n\n    function quit(address manager, uint256 cdp, address dst) public {\n        ManagerLike(manager).quit(cdp, dst);\n    }\n\n    function enter(address manager, address src, uint256 cdp) public {\n        ManagerLike(manager).enter(src, cdp);\n    }\n\n    function shift(address manager, uint256 cdpSrc, uint256 cdpOrg) public {\n        ManagerLike(manager).shift(cdpSrc, cdpOrg);\n    }\n}\n",
  "sourcePath": "@studydefi/money-legos/maker/contracts/DssProxyActionsBase.sol",
  "compiler": {
    "name": "solc",
    "version": "0.5.16+commit.9c3226ce.Emscripten.clang"
  },
  "schemaVersion": "3.4.7",
  "updatedAt": "2022-07-29T08:26:19.704Z",
  "devdoc": {
    "methods": {}
  },
  "userdoc": {
    "methods": {}
  }
}