{
  "contractName": "Flashloan",
  "abi": [
    {
      "inputs": [
        {
          "internalType": "address",
          "name": "kyberAddress",
          "type": "address"
        },
        {
          "internalType": "address",
          "name": "uniswapAddress",
          "type": "address"
        },
        {
          "internalType": "address",
          "name": "wethAddress",
          "type": "address"
        },
        {
          "internalType": "address",
          "name": "daiAddress",
          "type": "address"
        },
        {
          "internalType": "address",
          "name": "daiFaucetAddress",
          "type": "address"
        },
        {
          "internalType": "address",
          "name": "beneficiaryAddress",
          "type": "address"
        }
      ],
      "payable": false,
      "stateMutability": "nonpayable",
      "type": "constructor"
    },
    {
      "anonymous": false,
      "inputs": [
        {
          "indexed": false,
          "internalType": "enum Flashloan.Direction",
          "name": "direction",
          "type": "uint8"
        },
        {
          "indexed": false,
          "internalType": "uint256",
          "name": "profit",
          "type": "uint256"
        },
        {
          "indexed": false,
          "internalType": "uint256",
          "name": "date",
          "type": "uint256"
        }
      ],
      "name": "NewArbitrage",
      "type": "event"
    },
    {
      "payable": true,
      "stateMutability": "payable",
      "type": "fallback"
    },
    {
      "constant": false,
      "inputs": [
        {
          "internalType": "address",
          "name": "sender",
          "type": "address"
        },
        {
          "components": [
            {
              "internalType": "address",
              "name": "owner",
              "type": "address"
            },
            {
              "internalType": "uint256",
              "name": "number",
              "type": "uint256"
            }
          ],
          "internalType": "struct Account.Info",
          "name": "account",
          "type": "tuple"
        },
        {
          "internalType": "bytes",
          "name": "data",
          "type": "bytes"
        }
      ],
      "name": "callFunction",
      "outputs": [],
      "payable": false,
      "stateMutability": "nonpayable",
      "type": "function"
    },
    {
      "constant": false,
      "inputs": [
        {
          "internalType": "address",
          "name": "_solo",
          "type": "address"
        },
        {
          "internalType": "address",
          "name": "_token",
          "type": "address"
        },
        {
          "internalType": "uint256",
          "name": "_amount",
          "type": "uint256"
        },
        {
          "internalType": "enum Flashloan.Direction",
          "name": "_direction",
          "type": "uint8"
        }
      ],
      "name": "initiateFlashloan",
      "outputs": [],
      "payable": false,
      "stateMutability": "nonpayable",
      "type": "function"
    }
  ],
  "bytecode": "0x60806040523480156200001157600080fd5b50604051620026cc380380620026cc833981810160405262000037919081019062000201565b856000806101000a81548173ffffffffffffffffffffffffffffffffffffffff021916908373ffffffffffffffffffffffffffffffffffffffff16021790555084600160006101000a81548173ffffffffffffffffffffffffffffffffffffffff021916908373ffffffffffffffffffffffffffffffffffffffff16021790555083600260006101000a81548173ffffffffffffffffffffffffffffffffffffffff021916908373ffffffffffffffffffffffffffffffffffffffff16021790555082600360006101000a81548173ffffffffffffffffffffffffffffffffffffffff021916908373ffffffffffffffffffffffffffffffffffffffff160217905550600460009054906101000a900473ffffffffffffffffffffffffffffffffffffffff16600460006101000a81548173ffffffffffffffffffffffffffffffffffffffff021916908373ffffffffffffffffffffffffffffffffffffffff16021790555080600560006101000a81548173ffffffffffffffffffffffffffffffffffffffff021916908373ffffffffffffffffffffffffffffffffffffffff160217905550505050505050620002e5565b600081519050620001fb81620002cb565b92915050565b60008060008060008060c087890312156200021b57600080fd5b60006200022b89828a01620001ea565b96505060206200023e89828a01620001ea565b95505060406200025189828a01620001ea565b94505060606200026489828a01620001ea565b93505060806200027789828a01620001ea565b92505060a06200028a89828a01620001ea565b9150509295509295509295565b6000620002a482620002ab565b9050919050565b600073ffffffffffffffffffffffffffffffffffffffff82169050919050565b620002d68162000297565b8114620002e257600080fd5b50565b6123d780620002f56000396000f3fe6080604052600436106100295760003560e01c80638b4187131461002b578063c013147614610054575b005b34801561003757600080fd5b50610052600480360361004d919081019061180d565b61007d565b005b34801561006057600080fd5b5061007b600480360361007691908101906117aa565b610d00565b005b6100856113e2565b8180602001905161009991908101906118de565b90506000600360009054906101000a900473ffffffffffffffffffffffffffffffffffffffff1673ffffffffffffffffffffffffffffffffffffffff166370a08231306040518263ffffffff1660e01b81526004016100f89190611dcb565b60206040518083038186803b15801561011057600080fd5b505afa158015610124573d6000803e3d6000fd5b505050506040513d601f19601f820116820180604052506101489190810190611907565b90506000600181111561015757fe5b8260000151600181111561016757fe5b141561068e57600360009054906101000a900473ffffffffffffffffffffffffffffffffffffffff1673ffffffffffffffffffffffffffffffffffffffff1663095ea7b36000809054906101000a900473ffffffffffffffffffffffffffffffffffffffff16836040518363ffffffff1660e01b81526004016101eb929190611de6565b602060405180830381600087803b15801561020557600080fd5b505af1158015610219573d6000803e3d6000fd5b505050506040513d601f19601f8201168201806040525061023d91908101906118b5565b5060008060009054906101000a900473ffffffffffffffffffffffffffffffffffffffff1673ffffffffffffffffffffffffffffffffffffffff1663809a9e55600360009054906101000a900473ffffffffffffffffffffffffffffffffffffffff1673eeeeeeeeeeeeeeeeeeeeeeeeeeeeeeeeeeeeeeee856040518463ffffffff1660e01b81526004016102d493929190611e46565b604080518083038186803b1580156102eb57600080fd5b505afa1580156102ff573d6000803e3d6000fd5b505050506040513d601f19601f820116820180604052506103239190810190611930565b5090506000809054906101000a900473ffffffffffffffffffffffffffffffffffffffff1673ffffffffffffffffffffffffffffffffffffffff16633bba21dc600360009054906101000a900473ffffffffffffffffffffffffffffffffffffffff1684846040518463ffffffff1660e01b81526004016103a693929190611ea6565b602060405180830381600087803b1580156103c057600080fd5b505af11580156103d4573d6000803e3d6000fd5b505050506040513d601f19601f820116820180604052506103f89190810190611907565b506060600260405190808252806020026020018201604052801561042b5781602001602082028038833980820191505090505b509050600260009054906101000a900473ffffffffffffffffffffffffffffffffffffffff168160008151811061045e57fe5b602002602001019073ffffffffffffffffffffffffffffffffffffffff16908173ffffffffffffffffffffffffffffffffffffffff1681525050600360009054906101000a900473ffffffffffffffffffffffffffffffffffffffff16816001815181106104c857fe5b602002602001019073ffffffffffffffffffffffffffffffffffffffff16908173ffffffffffffffffffffffffffffffffffffffff16815250506060600160009054906101000a900473ffffffffffffffffffffffffffffffffffffffff1673ffffffffffffffffffffffffffffffffffffffff1663d06ca61f47846040518363ffffffff1660e01b8152600401610561929190611f53565b60006040518083038186803b15801561057957600080fd5b505afa15801561058d573d6000803e3d6000fd5b505050506040513d6000823e3d601f19601f820116820180604052506105b69190810190611874565b9050600160009054906101000a900473ffffffffffffffffffffffffffffffffffffffff1673ffffffffffffffffffffffffffffffffffffffff16637ff36ab5478360018151811061060457fe5b60200260200101518530426040518663ffffffff1660e01b815260040161062e9493929190611f83565b6000604051808303818588803b15801561064757600080fd5b505af115801561065b573d6000803e3d6000fd5b50505050506040513d6000823e3d601f19601f820116820180604052506106859190810190611874565b50505050610bac565b600360009054906101000a900473ffffffffffffffffffffffffffffffffffffffff1673ffffffffffffffffffffffffffffffffffffffff1663095ea7b3600160009054906101000a900473ffffffffffffffffffffffffffffffffffffffff16836040518363ffffffff1660e01b815260040161070d929190611de6565b602060405180830381600087803b15801561072757600080fd5b505af115801561073b573d6000803e3d6000fd5b505050506040513d601f19601f8201168201806040525061075f91908101906118b5565b50606060026040519080825280602002602001820160405280156107925781602001602082028038833980820191505090505b509050600360009054906101000a900473ffffffffffffffffffffffffffffffffffffffff16816000815181106107c557fe5b602002602001019073ffffffffffffffffffffffffffffffffffffffff16908173ffffffffffffffffffffffffffffffffffffffff1681525050600260009054906101000a900473ffffffffffffffffffffffffffffffffffffffff168160018151811061082f57fe5b602002602001019073ffffffffffffffffffffffffffffffffffffffff16908173ffffffffffffffffffffffffffffffffffffffff16815250506060600160009054906101000a900473ffffffffffffffffffffffffffffffffffffffff1673ffffffffffffffffffffffffffffffffffffffff1663d06ca61f84846040518363ffffffff1660e01b81526004016108c8929190611f53565b60006040518083038186803b1580156108e057600080fd5b505afa1580156108f4573d6000803e3d6000fd5b505050506040513d6000823e3d601f19601f8201168201806040525061091d9190810190611874565b9050600160009054906101000a900473ffffffffffffffffffffffffffffffffffffffff1673ffffffffffffffffffffffffffffffffffffffff166318cbafe5848360018151811061096b57fe5b60200260200101518530426040518663ffffffff1660e01b8152600401610996959493929190611fcf565b600060405180830381600087803b1580156109b057600080fd5b505af11580156109c4573d6000803e3d6000fd5b505050506040513d6000823e3d601f19601f820116820180604052506109ed9190810190611874565b5060008060009054906101000a900473ffffffffffffffffffffffffffffffffffffffff1673ffffffffffffffffffffffffffffffffffffffff1663809a9e5573eeeeeeeeeeeeeeeeeeeeeeeeeeeeeeeeeeeeeeee600360009054906101000a900473ffffffffffffffffffffffffffffffffffffffff16476040518463ffffffff1660e01b8152600401610a8493929190611e46565b604080518083038186803b158015610a9b57600080fd5b505afa158015610aaf573d6000803e3d6000fd5b505050506040513d601f19601f82011682018060405250610ad39190810190611930565b5090506000809054906101000a900473ffffffffffffffffffffffffffffffffffffffff1673ffffffffffffffffffffffffffffffffffffffff16637a2a045647600360009054906101000a900473ffffffffffffffffffffffffffffffffffffffff16846040518463ffffffff1660e01b8152600401610b55929190611e7d565b6020604051808303818588803b158015610b6e57600080fd5b505af1158015610b82573d6000803e3d6000fd5b50505050506040513d601f19601f82011682018060405250610ba79190810190611907565b505050505b600360009054906101000a900473ffffffffffffffffffffffffffffffffffffffff1673ffffffffffffffffffffffffffffffffffffffff166370a08231306040518263ffffffff1660e01b8152600401610c079190611dcb565b60206040518083038186803b158015610c1f57600080fd5b505afa158015610c33573d6000803e3d6000fd5b505050506040513d601f19601f82011682018060405250610c579190810190611907565b90508160200151811015610cf957600460009054906101000a900473ffffffffffffffffffffffffffffffffffffffff1673ffffffffffffffffffffffffffffffffffffffff16638cd6b340828460200151036040518263ffffffff1660e01b8152600401610cc69190611f38565b600060405180830381600087803b158015610ce057600080fd5b505af1158015610cf4573d6000803e3d6000fd5b505050505b5050505050565b60008490506000610d118686610f69565b90506000610d1e8561111b565b90508573ffffffffffffffffffffffffffffffffffffffff1663095ea7b388836040518363ffffffff1660e01b8152600401610d5b929190611de6565b602060405180830381600087803b158015610d7557600080fd5b505af1158015610d89573d6000803e3d6000fd5b505050506040513d601f19601f82011682018060405250610dad91908101906118b5565b5060606003604051908082528060200260200182016040528015610deb57816020015b610dd8611407565b815260200190600190039081610dd05790505b509050610df88387611138565b81600081518110610e0557fe5b6020026020010181905250610e576040518060400160405280876001811115610e2a57fe5b815260200184815250604051602001610e439190611f1d565b6040516020818303038152906040526111f1565b81600181518110610e6457fe5b6020026020010181905250610e79838361129b565b81600281518110610e8657fe5b602002602001018190525060606001604051908082528060200260200182016040528015610ece57816020015b610ebb611473565b815260200190600190039081610eb35790505b509050610ed9611354565b81600081518110610ee657fe5b60200260200101819052508473ffffffffffffffffffffffffffffffffffffffff1663a67a6a4582846040518363ffffffff1660e01b8152600401610f2c929190611e0f565b600060405180830381600087803b158015610f4657600080fd5b505af1158015610f5a573d6000803e3d6000fd5b50505050505050505050505050565b60008083905060008173ffffffffffffffffffffffffffffffffffffffff1663295c39a56040518163ffffffff1660e01b815260040160206040518083038186803b158015610fb757600080fd5b505afa158015610fcb573d6000803e3d6000fd5b505050506040513d601f19601f82011682018060405250610fef9190810190611907565b9050600080600090505b828110156110d9578373ffffffffffffffffffffffffffffffffffffffff1663062bd3e9826040518263ffffffff1660e01b815260040161103a9190611f38565b60206040518083038186803b15801561105257600080fd5b505afa158015611066573d6000803e3d6000fd5b505050506040513d601f19601f8201168201806040525061108a9190810190611781565b91508573ffffffffffffffffffffffffffffffffffffffff168273ffffffffffffffffffffffffffffffffffffffff1614156110cc5780945050505050611115565b8080600101915050610ff9565b506040517f08c379a000000000000000000000000000000000000000000000000000000000815260040161110c90611efd565b60405180910390fd5b92915050565b600061113160028361138d90919063ffffffff16565b9050919050565b6111406114a3565b6040518061010001604052806001600881111561115957fe5b81526020016000815260200160405180608001604052806000151581526020016000600181111561118657fe5b81526020016000600181111561119857fe5b8152602001858152508152602001848152602001600081526020013073ffffffffffffffffffffffffffffffffffffffff1681526020016000815260200160405180602001604052806000815250815250905092915050565b6111f96114a3565b60405180610100016040528060088081111561121157fe5b81526020016000815260200160405180608001604052806000151581526020016000600181111561123e57fe5b81526020016000600181111561125057fe5b81526020016000815250815260200160008152602001600081526020013073ffffffffffffffffffffffffffffffffffffffff16815260200160008152602001838152509050919050565b6112a36114a3565b604051806101000160405280600060088111156112bc57fe5b8152602001600081526020016040518060800160405280600115158152602001600060018111156112e957fe5b8152602001600060018111156112fb57fe5b8152602001858152508152602001848152602001600081526020013073ffffffffffffffffffffffffffffffffffffffff1681526020016000815260200160405180602001604052806000815250815250905092915050565b61135c61150f565b60405180604001604052803073ffffffffffffffffffffffffffffffffffffffff1681526020016001815250905090565b6000808284019050838110156113d8576040517f08c379a00000000000000000000000000000000000000000000000000000000081526004016113cf90611edd565b60405180910390fd5b8091505092915050565b6040518060400160405280600060018111156113fa57fe5b8152602001600081525090565b6040518061010001604052806000600881111561142057fe5b81526020016000815260200161143461153f565b81526020016000815260200160008152602001600073ffffffffffffffffffffffffffffffffffffffff16815260200160008152602001606081525090565b6040518060400160405280600073ffffffffffffffffffffffffffffffffffffffff168152602001600081525090565b604051806101000160405280600060088111156114bc57fe5b8152602001600081526020016114d061153f565b81526020016000815260200160008152602001600073ffffffffffffffffffffffffffffffffffffffff16815260200160008152602001606081525090565b6040518060400160405280600073ffffffffffffffffffffffffffffffffffffffff168152602001600081525090565b60405180608001604052806000151581526020016000600181111561156057fe5b81526020016000600181111561157257fe5b8152602001600081525090565b60008135905061158e8161233f565b92915050565b6000815190506115a38161233f565b92915050565b600082601f8301126115ba57600080fd5b81516115cd6115c882612056565b612029565b915081818352602084019350602081019050838560208402820111156115f257600080fd5b60005b838110156116225781611608888261176c565b8452602084019350602083019250506001810190506115f5565b5050505092915050565b60008151905061163b81612356565b92915050565b600082601f83011261165257600080fd5b81356116656116608261207e565b612029565b9150808252602083016020830185838301111561168157600080fd5b61168c8382846122b8565b50505092915050565b6000813590506116a48161236d565b92915050565b6000815190506116b98161236d565b92915050565b6000604082840312156116d157600080fd5b6116db6040612029565b905060006116eb848285016116aa565b60008301525060206116ff8482850161176c565b60208301525092915050565b60006040828403121561171d57600080fd5b6117276040612029565b905060006117378482850161157f565b600083015250602061174b84828501611757565b60208301525092915050565b6000813590506117668161237d565b92915050565b60008151905061177b8161237d565b92915050565b60006020828403121561179357600080fd5b60006117a184828501611594565b91505092915050565b600080600080608085870312156117c057600080fd5b60006117ce8782880161157f565b94505060206117df8782880161157f565b93505060406117f087828801611757565b925050606061180187828801611695565b91505092959194509250565b60008060006080848603121561182257600080fd5b60006118308682870161157f565b93505060206118418682870161170b565b925050606084013567ffffffffffffffff81111561185e57600080fd5b61186a86828701611641565b9150509250925092565b60006020828403121561188657600080fd5b600082015167ffffffffffffffff8111156118a057600080fd5b6118ac848285016115a9565b91505092915050565b6000602082840312156118c757600080fd5b60006118d58482850161162c565b91505092915050565b6000604082840312156118f057600080fd5b60006118fe848285016116bf565b91505092915050565b60006020828403121561191957600080fd5b60006119278482850161176c565b91505092915050565b6000806040838503121561194357600080fd5b60006119518582860161176c565b92505060206119628582860161176c565b9150509250929050565b600061197883836119bf565b60208301905092915050565b60006119908383611c47565b905092915050565b60006119a48383611d7e565b60408301905092915050565b6119b981612216565b82525050565b6119c881612182565b82525050565b6119d781612182565b82525050565b60006119e8826120da565b6119f2818561212d565b93506119fd836120aa565b8060005b83811015611a2e578151611a15888261196c565b9750611a2083612106565b925050600181019050611a01565b5085935050505092915050565b6000611a46826120e5565b611a50818561213e565b935083602082028501611a62856120ba565b8060005b85811015611a9e5784840389528151611a7f8582611984565b9450611a8a83612113565b925060208a01995050600181019050611a66565b50829750879550505050505092915050565b6000611abb826120f0565b611ac5818561214f565b9350611ad0836120ca565b8060005b83811015611b01578151611ae88882611998565b9750611af383612120565b925050600181019050611ad4565b5085935050505092915050565b611b1781612194565b82525050565b6000611b28826120fb565b611b328185612160565b9350611b428185602086016122c7565b611b4b816122fa565b840191505092915050565b611b5f81612228565b82525050565b611b6e8161224c565b82525050565b611b7d8161225e565b82525050565b611b8c81612270565b82525050565b611b9b81612282565b82525050565b6000611bae601b83612171565b91507f536166654d6174683a206164646974696f6e206f766572666c6f7700000000006000830152602082019050919050565b6000611bee602483612171565b91507f4e6f206d61726b6574496420666f756e6420666f722070726f7669646564207460008301527f6f6b656e000000000000000000000000000000000000000000000000000000006020830152604082019050919050565b600061016083016000830151611c606000860182611b65565b506020830151611c736020860182611dad565b506040830151611c866040860182611d29565b506060830151611c9960c0860182611dad565b506080830151611cac60e0860182611dad565b5060a0830151611cc06101008601826119bf565b5060c0830151611cd4610120860182611dad565b5060e0830151848203610140860152611ced8282611b1d565b9150508091505092915050565b604082016000820151611d106000850182611b92565b506020820151611d236020850182611dad565b50505050565b608082016000820151611d3f6000850182611b0e565b506020820151611d526020850182611b74565b506040820151611d656040850182611b83565b506060820151611d786060850182611dad565b50505050565b604082016000820151611d9460008501826119bf565b506020820151611da76020850182611dad565b50505050565b611db68161220c565b82525050565b611dc58161220c565b82525050565b6000602082019050611de060008301846119b0565b92915050565b6000604082019050611dfb60008301856119ce565b611e086020830184611dbc565b9392505050565b60006040820190508181036000830152611e298185611ab0565b90508181036020830152611e3d8184611a3b565b90509392505050565b6000606082019050611e5b6000830186611b56565b611e686020830185611b56565b611e756040830184611dbc565b949350505050565b6000604082019050611e926000830185611b56565b611e9f6020830184611dbc565b9392505050565b6000606082019050611ebb6000830186611b56565b611ec86020830185611dbc565b611ed56040830184611dbc565b949350505050565b60006020820190508181036000830152611ef681611ba1565b9050919050565b60006020820190508181036000830152611f1681611be1565b9050919050565b6000604082019050611f326000830184611cfa565b92915050565b6000602082019050611f4d6000830184611dbc565b92915050565b6000604082019050611f686000830185611dbc565b8181036020830152611f7a81846119dd565b90509392505050565b6000608082019050611f986000830187611dbc565b8181036020830152611faa81866119dd565b9050611fb960408301856119b0565b611fc66060830184611dbc565b95945050505050565b600060a082019050611fe46000830188611dbc565b611ff16020830187611dbc565b818103604083015261200381866119dd565b905061201260608301856119b0565b61201f6080830184611dbc565b9695505050505050565b6000604051905081810181811067ffffffffffffffff8211171561204c57600080fd5b8060405250919050565b600067ffffffffffffffff82111561206d57600080fd5b602082029050602081019050919050565b600067ffffffffffffffff82111561209557600080fd5b601f19601f8301169050602081019050919050565b6000819050602082019050919050565b6000819050602082019050919050565b6000819050602082019050919050565b600081519050919050565b600081519050919050565b600081519050919050565b600081519050919050565b6000602082019050919050565b6000602082019050919050565b6000602082019050919050565b600082825260208201905092915050565b600082825260208201905092915050565b600082825260208201905092915050565b600082825260208201905092915050565b600082825260208201905092915050565b600061218d826121ec565b9050919050565b60008115159050919050565b60008190506121ae8261230b565b919050565b60008190506121c182612318565b919050565b60008190506121d482612325565b919050565b60008190506121e782612332565b919050565b600073ffffffffffffffffffffffffffffffffffffffff82169050919050565b6000819050919050565b600061222182612294565b9050919050565b60006122338261223a565b9050919050565b6000612245826121ec565b9050919050565b6000612257826121a0565b9050919050565b6000612269826121b3565b9050919050565b600061227b826121c6565b9050919050565b600061228d826121d9565b9050919050565b600061229f826122a6565b9050919050565b60006122b1826121ec565b9050919050565b82818337600083830152505050565b60005b838110156122e55780820151818401526020810190506122ca565b838111156122f4576000848401525b50505050565b6000601f19601f8301169050919050565b6009811061231557fe5b50565b6002811061232257fe5b50565b6002811061232f57fe5b50565b6002811061233c57fe5b50565b61234881612182565b811461235357600080fd5b50565b61235f81612194565b811461236a57600080fd5b50565b6002811061237a57600080fd5b50565b6123868161220c565b811461239157600080fd5b5056fea365627a7a72315820f25ffdc0c883edc07284a1b66b72e2f374d81d70d32cf0bee0983b9b062c0e206c6578706572696d656e74616cf564736f6c63430005100040",
  "source": "pragma solidity ^0.5.0;\npragma experimental ABIEncoderV2;\n\nimport \"@studydefi/money-legos/dydx/contracts/DydxFlashloanBase.sol\";\nimport \"@studydefi/money-legos/dydx/contracts/ICallee.sol\";\nimport { KyberNetworkProxy as IKyberNetworkProxy } from '@studydefi/money-legos/kyber/contracts/KyberNetworkProxy.sol';\n\nimport \"@openzeppelin/contracts/token/ERC20/IERC20.sol\";\nimport './IUniswapV2Router02.sol';\nimport './IWeth.sol';\nimport './DaiFaucet.sol';\n\ncontract Flashloan is ICallee, DydxFlashloanBase {\n    enum Direction { KyberToUniswap, UniswapToKyber } \n    struct ArbInfo {\n        Direction direction;\n        uint repayAmount;\n    }\n\n    event NewArbitrage (\n      Direction direction,\n      uint profit,\n      uint date\n    );\n\n    IKyberNetworkProxy kyber;\n    IUniswapV2Router02 uniswap;\n    IWeth weth;\n    IERC20 dai;\n    DaiFaucet daiFaucet;\n    address beneficiary;\n    address constant KYBER_ETH_ADDRESS = 0xEeeeeEeeeEeEeeEeEeEeeEEEeeeeEeeeeeeeEEeE;\n\n    constructor(\n        address kyberAddress,\n        address uniswapAddress,\n        address wethAddress,\n        address daiAddress,\n        address daiFaucetAddress,\n        address beneficiaryAddress\n    ) public {\n      kyber = IKyberNetworkProxy(kyberAddress);\n      uniswap = IUniswapV2Router02(uniswapAddress);\n      weth = IWeth(wethAddress);\n      dai = IERC20(daiAddress);\n      daiFaucet = DaiFaucet(daiFaucet);\n      beneficiary = beneficiaryAddress;\n    }\n\n    // This is the function that will be called postLoan\n    // i.e. Encode the logic to handle your flashloaned funds here\n    function callFunction(\n        address sender,\n        Account.Info memory account,\n        bytes memory data\n    ) public {\n        ArbInfo memory arbInfo = abi.decode(data, (ArbInfo));\n        uint256 balanceDai = dai.balanceOf(address(this));\n\n        // Note that you can ignore the line below\n        // if your dydx account (this contract in this case)\n        // has deposited at least ~2 Wei of assets into the account\n        // to balance out the collaterization ratio\n        //require(\n        //    balanceDai >= arbInfo.repayAmount,\n        //    \"Not enough funds to repay dydx loan!\"\n\n        if(arbInfo.direction == Direction.KyberToUniswap) {\n          //Buy ETH on Kyber\n          dai.approve(address(kyber), balanceDai); \n          (uint expectedRate, ) = kyber.getExpectedRate(\n            dai, \n            IERC20(KYBER_ETH_ADDRESS), \n            balanceDai\n          );\n          kyber.swapTokenToEther(dai, balanceDai, expectedRate);\n\n          //Sell ETH on Uniswap\n          address[] memory path = new address[](2);\n          path[0] = address(weth);\n          path[1] = address(dai);\n          uint[] memory minOuts = uniswap.getAmountsOut(address(this).balance, path); \n          uniswap.swapExactETHForTokens.value(address(this).balance)(\n            minOuts[1], \n            path, \n            address(this), \n            now\n          );\n        } else {\n          //Buy ETH on Uniswap\n          dai.approve(address(uniswap), balanceDai); \n          address[] memory path = new address[](2);\n          path[0] = address(dai);\n          path[1] = address(weth);\n          uint[] memory minOuts = uniswap.getAmountsOut(balanceDai, path); \n          uniswap.swapExactTokensForETH(\n            balanceDai, \n            minOuts[1], \n            path, \n            address(this), \n            now\n          );\n\n          //Sell ETH on Kyber\n          (uint expectedRate, ) = kyber.getExpectedRate(\n            IERC20(KYBER_ETH_ADDRESS), \n            dai, \n            address(this).balance\n          );\n          kyber.swapEtherToToken.value(address(this).balance)(\n            dai, \n            expectedRate\n          );\n        }\n        balanceDai = dai.balanceOf(address(this));\n        if(balanceDai < arbInfo.repayAmount) {\n          daiFaucet.sendDai(arbInfo.repayAmount - balanceDai);\n        }\n        //uint profit = dai.balanceOf(address(this)) - arbInfo.repayAmount; \n        //dai.transfer(beneficiary, profit);\n        //emit NewArbitrage(arbInfo.direction, profit, now);\n    }\n\n    function initiateFlashloan(\n      address _solo, \n      address _token, \n      uint256 _amount, \n      Direction _direction)\n        external\n    {\n        ISoloMargin solo = ISoloMargin(_solo);\n\n        // Get marketId from token address\n        uint256 marketId = _getMarketIdFromTokenAddress(_solo, _token);\n\n        // Calculate repay amount (_amount + (2 wei))\n        // Approve transfer from\n        uint256 repayAmount = _getRepaymentAmountInternal(_amount);\n        IERC20(_token).approve(_solo, repayAmount);\n\n        // 1. Withdraw $\n        // 2. Call callFunction(...)\n        // 3. Deposit back $\n        Actions.ActionArgs[] memory operations = new Actions.ActionArgs[](3);\n\n        operations[0] = _getWithdrawAction(marketId, _amount);\n        operations[1] = _getCallAction(\n            // Encode MyCustomData for callFunction\n            abi.encode(ArbInfo({direction: _direction, repayAmount: repayAmount}))\n        );\n        operations[2] = _getDepositAction(marketId, repayAmount);\n\n        Account.Info[] memory accountInfos = new Account.Info[](1);\n        accountInfos[0] = _getAccountInfo();\n\n        solo.operate(accountInfos, operations);\n    }\n\n    function() external payable {}\n}\n",
  "sourcePath": "/home/lav/Documents/Backuop/BlockChain/flashloan_testing/bonus-1-test-flashloan/contracts/Flashloan.sol",
  "compiler": {
    "name": "solc",
    "version": "0.5.16+commit.9c3226ce.Emscripten.clang"
  },
  "schemaVersion": "3.4.7",
  "updatedAt": "2022-08-09T14:38:45.620Z",
  "networkType": "ethereum",
  "devdoc": {
    "methods": {}
  },
  "userdoc": {
    "methods": {}
  }
}