{
  "contractName": "TestArbitrage",
  "abi": [
    {
      "inputs": [
        {
          "internalType": "address",
          "name": "kyberAddress",
          "type": "address"
        },
        {
          "internalType": "address",
          "name": "uniswapAddress",
          "type": "address"
        },
        {
          "internalType": "address",
          "name": "wethAddress",
          "type": "address"
        },
        {
          "internalType": "address",
          "name": "daiAddress",
          "type": "address"
        }
      ],
      "payable": false,
      "stateMutability": "nonpayable",
      "type": "constructor"
    },
    {
      "payable": true,
      "stateMutability": "payable",
      "type": "fallback"
    },
    {
      "constant": false,
      "inputs": [
        {
          "internalType": "uint256",
          "name": "daiAmount",
          "type": "uint256"
        }
      ],
      "name": "kyberToUniswap",
      "outputs": [
        {
          "internalType": "address",
          "name": "",
          "type": "address"
        }
      ],
      "payable": false,
      "stateMutability": "nonpayable",
      "type": "function"
    },
    {
      "constant": false,
      "inputs": [
        {
          "internalType": "uint256",
          "name": "daiAmount",
          "type": "uint256"
        }
      ],
      "name": "uniswapToKyber",
      "outputs": [],
      "payable": false,
      "stateMutability": "nonpayable",
      "type": "function"
    }
  ],
  "bytecode": "0x608060405234801561001057600080fd5b506040516112533803806112538339818101604052608081101561003357600080fd5b8101908080519060200190929190805190602001909291908051906020019092919080519060200190929190505050836000806101000a81548173ffffffffffffffffffffffffffffffffffffffff021916908373ffffffffffffffffffffffffffffffffffffffff16021790555082600160006101000a81548173ffffffffffffffffffffffffffffffffffffffff021916908373ffffffffffffffffffffffffffffffffffffffff16021790555081600260006101000a81548173ffffffffffffffffffffffffffffffffffffffff021916908373ffffffffffffffffffffffffffffffffffffffff16021790555080600360006101000a81548173ffffffffffffffffffffffffffffffffffffffff021916908373ffffffffffffffffffffffffffffffffffffffff160217905550505050506110db806101786000396000f3fe6080604052600436106100295760003560e01c80637b0f79961461002b578063b649796714610066575b005b34801561003757600080fd5b506100646004803603602081101561004e57600080fd5b81019080803590602001909291905050506100e1565b005b34801561007257600080fd5b5061009f6004803603602081101561008957600080fd5b8101908080359060200190929190505050610790565b604051808273ffffffffffffffffffffffffffffffffffffffff1673ffffffffffffffffffffffffffffffffffffffff16815260200191505060405180910390f35b600360009054906101000a900473ffffffffffffffffffffffffffffffffffffffff1673ffffffffffffffffffffffffffffffffffffffff166323b872dd3330846040518463ffffffff1660e01b8152600401808473ffffffffffffffffffffffffffffffffffffffff1673ffffffffffffffffffffffffffffffffffffffff1681526020018373ffffffffffffffffffffffffffffffffffffffff1673ffffffffffffffffffffffffffffffffffffffff1681526020018281526020019350505050602060405180830381600087803b1580156101be57600080fd5b505af11580156101d2573d6000803e3d6000fd5b505050506040513d60208110156101e857600080fd5b810190808051906020019092919050505050600360009054906101000a900473ffffffffffffffffffffffffffffffffffffffff1673ffffffffffffffffffffffffffffffffffffffff1663095ea7b3600160009054906101000a900473ffffffffffffffffffffffffffffffffffffffff16836040518363ffffffff1660e01b8152600401808373ffffffffffffffffffffffffffffffffffffffff1673ffffffffffffffffffffffffffffffffffffffff16815260200182815260200192505050602060405180830381600087803b1580156102c557600080fd5b505af11580156102d9573d6000803e3d6000fd5b505050506040513d60208110156102ef57600080fd5b810190808051906020019092919050505050606060026040519080825280602002602001820160405280156103335781602001602082028038833980820191505090505b509050600360009054906101000a900473ffffffffffffffffffffffffffffffffffffffff168160008151811061036657fe5b602002602001019073ffffffffffffffffffffffffffffffffffffffff16908173ffffffffffffffffffffffffffffffffffffffff1681525050600260009054906101000a900473ffffffffffffffffffffffffffffffffffffffff16816001815181106103d057fe5b602002602001019073ffffffffffffffffffffffffffffffffffffffff16908173ffffffffffffffffffffffffffffffffffffffff16815250506060600160009054906101000a900473ffffffffffffffffffffffffffffffffffffffff1673ffffffffffffffffffffffffffffffffffffffff1663d06ca61f84846040518363ffffffff1660e01b81526004018083815260200180602001828103825283818151815260200191508051906020019060200280838360005b838110156104a4578082015181840152602081019050610489565b50505050905001935050505060006040518083038186803b1580156104c857600080fd5b505afa1580156104dc573d6000803e3d6000fd5b505050506040513d6000823e3d601f19601f82011682018060405250602081101561050657600080fd5b810190808051604051939291908464010000000082111561052657600080fd5b8382019150602082018581111561053c57600080fd5b825186602082028301116401000000008211171561055957600080fd5b8083526020830192505050908051906020019060200280838360005b83811015610590578082015181840152602081019050610575565b505050509050016040525050509050600160009054906101000a900473ffffffffffffffffffffffffffffffffffffffff1673ffffffffffffffffffffffffffffffffffffffff166318cbafe584836001815181106105eb57fe5b60200260200101518530426040518663ffffffff1660e01b815260040180868152602001858152602001806020018473ffffffffffffffffffffffffffffffffffffffff1673ffffffffffffffffffffffffffffffffffffffff168152602001838152602001828103825285818151815260200191508051906020019060200280838360005b8381101561068c578082015181840152602081019050610671565b505050509050019650505050505050600060405180830381600087803b1580156106b557600080fd5b505af11580156106c9573d6000803e3d6000fd5b505050506040513d6000823e3d601f19601f8201168201806040525060208110156106f357600080fd5b810190808051604051939291908464010000000082111561071357600080fd5b8382019150602082018581111561072957600080fd5b825186602082028301116401000000008211171561074657600080fd5b8083526020830192505050908051906020019060200280838360005b8381101561077d578082015181840152602081019050610762565b5050505090500160405250505050505050565b6000600360009054906101000a900473ffffffffffffffffffffffffffffffffffffffff1673ffffffffffffffffffffffffffffffffffffffff166323b872dd3330856040518463ffffffff1660e01b8152600401808473ffffffffffffffffffffffffffffffffffffffff1673ffffffffffffffffffffffffffffffffffffffff1681526020018373ffffffffffffffffffffffffffffffffffffffff1673ffffffffffffffffffffffffffffffffffffffff1681526020018281526020019350505050602060405180830381600087803b15801561086f57600080fd5b505af1158015610883573d6000803e3d6000fd5b505050506040513d602081101561089957600080fd5b810190808051906020019092919050505050600360009054906101000a900473ffffffffffffffffffffffffffffffffffffffff1673ffffffffffffffffffffffffffffffffffffffff1663095ea7b36000809054906101000a900473ffffffffffffffffffffffffffffffffffffffff16846040518363ffffffff1660e01b8152600401808373ffffffffffffffffffffffffffffffffffffffff1673ffffffffffffffffffffffffffffffffffffffff16815260200182815260200192505050602060405180830381600087803b15801561097557600080fd5b505af1158015610989573d6000803e3d6000fd5b505050506040513d602081101561099f57600080fd5b81019080805190602001909291905050505060008060009054906101000a900473ffffffffffffffffffffffffffffffffffffffff1673ffffffffffffffffffffffffffffffffffffffff1663809a9e55600360009054906101000a900473ffffffffffffffffffffffffffffffffffffffff1673eeeeeeeeeeeeeeeeeeeeeeeeeeeeeeeeeeeeeeee866040518463ffffffff1660e01b8152600401808473ffffffffffffffffffffffffffffffffffffffff1673ffffffffffffffffffffffffffffffffffffffff1681526020018373ffffffffffffffffffffffffffffffffffffffff1673ffffffffffffffffffffffffffffffffffffffff1681526020018281526020019350505050604080518083038186803b158015610ac257600080fd5b505afa158015610ad6573d6000803e3d6000fd5b505050506040513d6040811015610aec57600080fd5b8101908080519060200190929190805190602001909291905050505090506000809054906101000a900473ffffffffffffffffffffffffffffffffffffffff1673ffffffffffffffffffffffffffffffffffffffff16633bba21dc600360009054906101000a900473ffffffffffffffffffffffffffffffffffffffff1685846040518463ffffffff1660e01b8152600401808473ffffffffffffffffffffffffffffffffffffffff1673ffffffffffffffffffffffffffffffffffffffff1681526020018381526020018281526020019350505050602060405180830381600087803b158015610bdc57600080fd5b505af1158015610bf0573d6000803e3d6000fd5b505050506040513d6020811015610c0657600080fd5b81019080805190602001909291905050505060606002604051908082528060200260200182016040528015610c4a5781602001602082028038833980820191505090505b509050600260009054906101000a900473ffffffffffffffffffffffffffffffffffffffff1681600081518110610c7d57fe5b602002602001019073ffffffffffffffffffffffffffffffffffffffff16908173ffffffffffffffffffffffffffffffffffffffff1681525050600360009054906101000a900473ffffffffffffffffffffffffffffffffffffffff1681600181518110610ce757fe5b602002602001019073ffffffffffffffffffffffffffffffffffffffff16908173ffffffffffffffffffffffffffffffffffffffff16815250506060600160009054906101000a900473ffffffffffffffffffffffffffffffffffffffff1673ffffffffffffffffffffffffffffffffffffffff1663d06ca61f47846040518363ffffffff1660e01b81526004018083815260200180602001828103825283818151815260200191508051906020019060200280838360005b83811015610dbb578082015181840152602081019050610da0565b50505050905001935050505060006040518083038186803b158015610ddf57600080fd5b505afa158015610df3573d6000803e3d6000fd5b505050506040513d6000823e3d601f19601f820116820180604052506020811015610e1d57600080fd5b8101908080516040519392919084640100000000821115610e3d57600080fd5b83820191506020820185811115610e5357600080fd5b8251866020820283011164010000000082111715610e7057600080fd5b8083526020830192505050908051906020019060200280838360005b83811015610ea7578082015181840152602081019050610e8c565b505050509050016040525050509050600160009054906101000a900473ffffffffffffffffffffffffffffffffffffffff1673ffffffffffffffffffffffffffffffffffffffff16637ff36ab54783600181518110610f0257fe5b60200260200101518530426040518663ffffffff1660e01b815260040180858152602001806020018473ffffffffffffffffffffffffffffffffffffffff1673ffffffffffffffffffffffffffffffffffffffff168152602001838152602001828103825285818151815260200191508051906020019060200280838360005b83811015610f9d578082015181840152602081019050610f82565b50505050905001955050505050506000604051808303818588803b158015610fc457600080fd5b505af1158015610fd8573d6000803e3d6000fd5b50505050506040513d6000823e3d601f19601f82011682018060405250602081101561100357600080fd5b810190808051604051939291908464010000000082111561102357600080fd5b8382019150602082018581111561103957600080fd5b825186602082028301116401000000008211171561105657600080fd5b8083526020830192505050908051906020019060200280838360005b8381101561108d578082015181840152602081019050611072565b505050509050016040525050505033935050505091905056fea265627a7a723158203b6a62fdb93e8947df12e5c17b4cc3aa5e331c34ef6cde457aac2491d85a199f64736f6c63430005100032",
  "source": "pragma solidity ^0.5.0;\n// pragma experimental ABIEncoderV2;\n\nimport {KyberNetworkProxy as IKyberNetworkProxy} from \"@studydefi/money-legos/kyber/contracts/KyberNetworkProxy.sol\";\nimport \"@openzeppelin/contracts/token/ERC20/IERC20.sol\";\nimport \"./IUniswapV2Router02.sol\";\nimport \"./IWeth.sol\";\n\ncontract TestArbitrage {\n    IKyberNetworkProxy kyber;\n    IUniswapV2Router02 uniswap;\n    IWeth weth;\n    IERC20 dai;\n    address constant KYBER_ETH_ADDRESS =\n        0xEeeeeEeeeEeEeeEeEeEeeEEEeeeeEeeeeeeeEEeE;\n\n    constructor(\n        address kyberAddress,\n        address uniswapAddress,\n        address wethAddress,\n        address daiAddress\n    ) public {\n        kyber = IKyberNetworkProxy(kyberAddress);\n        uniswap = IUniswapV2Router02(uniswapAddress);\n        weth = IWeth(wethAddress);\n        dai = IERC20(daiAddress);\n    }\n\n    function kyberToUniswap(uint daiAmount) external returns (address) {\n        dai.transferFrom(msg.sender, address(this), daiAmount);\n\n        //Buy ETH on Kyber\n        dai.approve(address(kyber), daiAmount);\n        (uint expectedRate, ) = kyber.getExpectedRate(\n            dai,\n            IERC20(KYBER_ETH_ADDRESS),\n            daiAmount\n        );\n        kyber.swapTokenToEther(dai, daiAmount, expectedRate);\n\n        //Sell ETH on Uniswap\n        address[] memory path = new address[](2);\n        path[0] = address(weth);\n        path[1] = address(dai);\n        uint[] memory minOuts = uniswap.getAmountsOut(\n            address(this).balance,\n            path\n        );\n        uniswap.swapExactETHForTokens.value(address(this).balance)(\n            minOuts[1],\n            path,\n            address(this),\n            now\n        );\n        return msg.sender;\n    }\n\n    function uniswapToKyber(uint daiAmount) external {\n        dai.transferFrom(msg.sender, address(this), daiAmount);\n\n        //Buy ETH on Uniswap\n        dai.approve(address(uniswap), daiAmount);\n        address[] memory path = new address[](2);\n        path[0] = address(dai);\n        path[1] = address(weth);\n        uint[] memory minOuts = uniswap.getAmountsOut(daiAmount, path);\n        uniswap.swapExactTokensForETH(\n            daiAmount,\n            minOuts[1],\n            path,\n            address(this),\n            now\n        );\n\n        //Commented out because no liquidity on Kovan\n        /*\n    //Sell ETH on Kyber\n    (uint expectedRate, ) = kyber.getExpectedRate(\n      IERC20(KYBER_ETH_ADDRESS), \n      dai, \n      address(this).balance\n    );\n    kyber.swapEtherToToken.value(address(this).balance)(\n      dai, \n      expectedRate\n    );\n    */\n    }\n\n    function() external payable {}\n}\n",
  "sourcePath": "/home/lav/Documents/Backuop/BlockChain/flashloan_testing/bonus-1-test-flashloan/contracts/TestArbitrage.sol",
  "compiler": {
    "name": "solc",
    "version": "0.5.16+commit.9c3226ce.Emscripten.clang"
  },
  "schemaVersion": "3.4.7",
  "updatedAt": "2022-08-05T07:06:14.653Z",
  "networkType": "ethereum",
  "devdoc": {
    "methods": {}
  },
  "userdoc": {
    "methods": {}
  }
}